{
  "_format": "hh-sol-artifact-1",
  "contractName": "MusicNFT",
  "sourceName": "contracts/MusicNFT.sol",
  "abi": [
    {
      "inputs": [],
      "stateMutability": "nonpayable",
      "type": "constructor"
    },
    {
      "inputs": [
        {
          "internalType": "address",
          "name": "sender",
          "type": "address"
        },
        {
          "internalType": "uint256",
          "name": "balance",
          "type": "uint256"
        },
        {
          "internalType": "uint256",
          "name": "needed",
          "type": "uint256"
        },
        {
          "internalType": "uint256",
          "name": "tokenId",
          "type": "uint256"
        }
      ],
      "name": "ERC1155InsufficientBalance",
      "type": "error"
    },
    {
      "inputs": [
        {
          "internalType": "address",
          "name": "approver",
          "type": "address"
        }
      ],
      "name": "ERC1155InvalidApprover",
      "type": "error"
    },
    {
      "inputs": [
        {
          "internalType": "uint256",
          "name": "idsLength",
          "type": "uint256"
        },
        {
          "internalType": "uint256",
          "name": "valuesLength",
          "type": "uint256"
        }
      ],
      "name": "ERC1155InvalidArrayLength",
      "type": "error"
    },
    {
      "inputs": [
        {
          "internalType": "address",
          "name": "operator",
          "type": "address"
        }
      ],
      "name": "ERC1155InvalidOperator",
      "type": "error"
    },
    {
      "inputs": [
        {
          "internalType": "address",
          "name": "receiver",
          "type": "address"
        }
      ],
      "name": "ERC1155InvalidReceiver",
      "type": "error"
    },
    {
      "inputs": [
        {
          "internalType": "address",
          "name": "sender",
          "type": "address"
        }
      ],
      "name": "ERC1155InvalidSender",
      "type": "error"
    },
    {
      "inputs": [
        {
          "internalType": "address",
          "name": "operator",
          "type": "address"
        },
        {
          "internalType": "address",
          "name": "owner",
          "type": "address"
        }
      ],
      "name": "ERC1155MissingApprovalForAll",
      "type": "error"
    },
    {
      "inputs": [
        {
          "internalType": "address",
          "name": "owner",
          "type": "address"
        }
      ],
      "name": "OwnableInvalidOwner",
      "type": "error"
    },
    {
      "inputs": [
        {
          "internalType": "address",
          "name": "account",
          "type": "address"
        }
      ],
      "name": "OwnableUnauthorizedAccount",
      "type": "error"
    },
    {
      "anonymous": false,
      "inputs": [
        {
          "indexed": true,
          "internalType": "address",
          "name": "account",
          "type": "address"
        },
        {
          "indexed": true,
          "internalType": "address",
          "name": "operator",
          "type": "address"
        },
        {
          "indexed": false,
          "internalType": "bool",
          "name": "approved",
          "type": "bool"
        }
      ],
      "name": "ApprovalForAll",
      "type": "event"
    },
    {
      "anonymous": false,
      "inputs": [
        {
          "indexed": true,
          "internalType": "address",
          "name": "previousOwner",
          "type": "address"
        },
        {
          "indexed": true,
          "internalType": "address",
          "name": "newOwner",
          "type": "address"
        }
      ],
      "name": "OwnershipTransferred",
      "type": "event"
    },
    {
      "anonymous": false,
      "inputs": [
        {
          "indexed": true,
          "internalType": "address",
          "name": "operator",
          "type": "address"
        },
        {
          "indexed": true,
          "internalType": "address",
          "name": "from",
          "type": "address"
        },
        {
          "indexed": true,
          "internalType": "address",
          "name": "to",
          "type": "address"
        },
        {
          "indexed": false,
          "internalType": "uint256[]",
          "name": "ids",
          "type": "uint256[]"
        },
        {
          "indexed": false,
          "internalType": "uint256[]",
          "name": "values",
          "type": "uint256[]"
        }
      ],
      "name": "TransferBatch",
      "type": "event"
    },
    {
      "anonymous": false,
      "inputs": [
        {
          "indexed": true,
          "internalType": "address",
          "name": "operator",
          "type": "address"
        },
        {
          "indexed": true,
          "internalType": "address",
          "name": "from",
          "type": "address"
        },
        {
          "indexed": true,
          "internalType": "address",
          "name": "to",
          "type": "address"
        },
        {
          "indexed": false,
          "internalType": "uint256",
          "name": "id",
          "type": "uint256"
        },
        {
          "indexed": false,
          "internalType": "uint256",
          "name": "value",
          "type": "uint256"
        }
      ],
      "name": "TransferSingle",
      "type": "event"
    },
    {
      "anonymous": false,
      "inputs": [
        {
          "indexed": false,
          "internalType": "string",
          "name": "value",
          "type": "string"
        },
        {
          "indexed": true,
          "internalType": "uint256",
          "name": "id",
          "type": "uint256"
        }
      ],
      "name": "URI",
      "type": "event"
    },
    {
      "inputs": [
        {
          "internalType": "address",
          "name": "account",
          "type": "address"
        },
        {
          "internalType": "uint256",
          "name": "id",
          "type": "uint256"
        }
      ],
      "name": "balanceOf",
      "outputs": [
        {
          "internalType": "uint256",
          "name": "",
          "type": "uint256"
        }
      ],
      "stateMutability": "view",
      "type": "function"
    },
    {
      "inputs": [
        {
          "internalType": "address[]",
          "name": "accounts",
          "type": "address[]"
        },
        {
          "internalType": "uint256[]",
          "name": "ids",
          "type": "uint256[]"
        }
      ],
      "name": "balanceOfBatch",
      "outputs": [
        {
          "internalType": "uint256[]",
          "name": "",
          "type": "uint256[]"
        }
      ],
      "stateMutability": "view",
      "type": "function"
    },
    {
      "inputs": [
        {
          "internalType": "uint256",
          "name": "tokenId",
          "type": "uint256"
        }
      ],
      "name": "buyMusic",
      "outputs": [],
      "stateMutability": "payable",
      "type": "function"
    },
    {
      "inputs": [
        {
          "internalType": "uint256",
          "name": "",
          "type": "uint256"
        }
      ],
      "name": "creators",
      "outputs": [
        {
          "internalType": "address",
          "name": "",
          "type": "address"
        }
      ],
      "stateMutability": "view",
      "type": "function"
    },
    {
      "inputs": [
        {
          "internalType": "address",
          "name": "account",
          "type": "address"
        },
        {
          "internalType": "address",
          "name": "operator",
          "type": "address"
        }
      ],
      "name": "isApprovedForAll",
      "outputs": [
        {
          "internalType": "bool",
          "name": "",
          "type": "bool"
        }
      ],
      "stateMutability": "view",
      "type": "function"
    },
    {
      "inputs": [
        {
          "internalType": "address",
          "name": "to",
          "type": "address"
        },
        {
          "internalType": "string",
          "name": "tokenURI",
          "type": "string"
        },
        {
          "internalType": "uint256",
          "name": "amount",
          "type": "uint256"
        },
        {
          "internalType": "uint256",
          "name": "priceInWei",
          "type": "uint256"
        }
      ],
      "name": "mintMusicNFT",
      "outputs": [
        {
          "internalType": "uint256",
          "name": "",
          "type": "uint256"
        }
      ],
      "stateMutability": "nonpayable",
      "type": "function"
    },
    {
      "inputs": [],
      "name": "owner",
      "outputs": [
        {
          "internalType": "address",
          "name": "",
          "type": "address"
        }
      ],
      "stateMutability": "view",
      "type": "function"
    },
    {
      "inputs": [
        {
          "internalType": "uint256",
          "name": "",
          "type": "uint256"
        }
      ],
      "name": "prices",
      "outputs": [
        {
          "internalType": "uint256",
          "name": "",
          "type": "uint256"
        }
      ],
      "stateMutability": "view",
      "type": "function"
    },
    {
      "inputs": [],
      "name": "renounceOwnership",
      "outputs": [],
      "stateMutability": "nonpayable",
      "type": "function"
    },
    {
      "inputs": [
        {
          "internalType": "address",
          "name": "from",
          "type": "address"
        },
        {
          "internalType": "address",
          "name": "to",
          "type": "address"
        },
        {
          "internalType": "uint256[]",
          "name": "ids",
          "type": "uint256[]"
        },
        {
          "internalType": "uint256[]",
          "name": "values",
          "type": "uint256[]"
        },
        {
          "internalType": "bytes",
          "name": "data",
          "type": "bytes"
        }
      ],
      "name": "safeBatchTransferFrom",
      "outputs": [],
      "stateMutability": "nonpayable",
      "type": "function"
    },
    {
      "inputs": [
        {
          "internalType": "address",
          "name": "from",
          "type": "address"
        },
        {
          "internalType": "address",
          "name": "to",
          "type": "address"
        },
        {
          "internalType": "uint256",
          "name": "id",
          "type": "uint256"
        },
        {
          "internalType": "uint256",
          "name": "value",
          "type": "uint256"
        },
        {
          "internalType": "bytes",
          "name": "data",
          "type": "bytes"
        }
      ],
      "name": "safeTransferFrom",
      "outputs": [],
      "stateMutability": "nonpayable",
      "type": "function"
    },
    {
      "inputs": [
        {
          "internalType": "address",
          "name": "operator",
          "type": "address"
        },
        {
          "internalType": "bool",
          "name": "approved",
          "type": "bool"
        }
      ],
      "name": "setApprovalForAll",
      "outputs": [],
      "stateMutability": "nonpayable",
      "type": "function"
    },
    {
      "inputs": [
        {
          "internalType": "bytes4",
          "name": "interfaceId",
          "type": "bytes4"
        }
      ],
      "name": "supportsInterface",
      "outputs": [
        {
          "internalType": "bool",
          "name": "",
          "type": "bool"
        }
      ],
      "stateMutability": "view",
      "type": "function"
    },
    {
      "inputs": [
        {
          "internalType": "address",
          "name": "newOwner",
          "type": "address"
        }
      ],
      "name": "transferOwnership",
      "outputs": [],
      "stateMutability": "nonpayable",
      "type": "function"
    },
    {
      "inputs": [
        {
          "internalType": "uint256",
          "name": "tokenId",
          "type": "uint256"
        }
      ],
      "name": "uri",
      "outputs": [
        {
          "internalType": "string",
          "name": "",
          "type": "string"
        }
      ],
      "stateMutability": "view",
      "type": "function"
    }
  ],
  "bytecode": "0x608060405234801561001057600080fd5b503360405180602001604052806000815250610031816100b960201b60201c565b50600073ffffffffffffffffffffffffffffffffffffffff168173ffffffffffffffffffffffffffffffffffffffff16036100a45760006040517f1e4fbdf700000000000000000000000000000000000000000000000000000000815260040161009b91906101d3565b60405180910390fd5b6100b3816100cc60201b60201c565b50610510565b80600290816100c8919061043e565b5050565b6000600360009054906101000a900473ffffffffffffffffffffffffffffffffffffffff16905081600360006101000a81548173ffffffffffffffffffffffffffffffffffffffff021916908373ffffffffffffffffffffffffffffffffffffffff1602179055508173ffffffffffffffffffffffffffffffffffffffff168173ffffffffffffffffffffffffffffffffffffffff167f8be0079c531659141344cd1fd0a4f28419497f9722a3daafe3b4186f6b6457e060405160405180910390a35050565b600073ffffffffffffffffffffffffffffffffffffffff82169050919050565b60006101bd82610192565b9050919050565b6101cd816101b2565b82525050565b60006020820190506101e860008301846101c4565b92915050565b600081519050919050565b7f4e487b7100000000000000000000000000000000000000000000000000000000600052604160045260246000fd5b7f4e487b7100000000000000000000000000000000000000000000000000000000600052602260045260246000fd5b6000600282049050600182168061026f57607f821691505b60208210810361028257610281610228565b5b50919050565b60008190508160005260206000209050919050565b60006020601f8301049050919050565b600082821b905092915050565b6000600883026102ea7fffffffffffffffffffffffffffffffffffffffffffffffffffffffffffffffff826102ad565b6102f486836102ad565b95508019841693508086168417925050509392505050565b6000819050919050565b6000819050919050565b600061033b6103366103318461030c565b610316565b61030c565b9050919050565b6000819050919050565b61035583610320565b61036961036182610342565b8484546102ba565b825550505050565b600090565b61037e610371565b61038981848461034c565b505050565b5b818110156103ad576103a2600082610376565b60018101905061038f565b5050565b601f8211156103f2576103c381610288565b6103cc8461029d565b810160208510156103db578190505b6103ef6103e78561029d565b83018261038e565b50505b505050565b600082821c905092915050565b6000610415600019846008026103f7565b1980831691505092915050565b600061042e8383610404565b9150826002028217905092915050565b610447826101ee565b67ffffffffffffffff8111156104605761045f6101f9565b5b61046a8254610257565b6104758282856103b1565b600060209050601f8311600181146104a85760008415610496578287015190505b6104a08582610422565b865550610508565b601f1984166104b686610288565b60005b828110156104de578489015182556001820191506020850194506020810190506104b9565b868310156104fb57848901516104f7601f891682610404565b8355505b6001600288020188555050505b505050505050565b612b5c8061051f6000396000f3fe6080604052600436106100e75760003560e01c80638da5cb5b1161008a578063e985e9c511610059578063e985e9c51461030a578063f242432a14610347578063f2fde38b14610370578063f7fa4dc014610399576100e7565b80638da5cb5b1461023c578063a22cb46514610267578063bc31c1c114610290578063cd53d08e146102cd576100e7565b80632538c533116100c65780632538c533146101a35780632eb2c2d6146101bf5780634e1273f4146101e8578063715018a614610225576100e7565b8062fdd58e146100ec57806301ffc9a7146101295780630e89341c14610166575b600080fd5b3480156100f857600080fd5b50610113600480360381019061010e9190611ac6565b6103d6565b6040516101209190611b15565b60405180910390f35b34801561013557600080fd5b50610150600480360381019061014b9190611b88565b610430565b60405161015d9190611bd0565b60405180910390f35b34801561017257600080fd5b5061018d60048036038101906101889190611beb565b610512565b60405161019a9190611ca8565b60405180910390f35b6101bd60048036038101906101b89190611beb565b6105b7565b005b3480156101cb57600080fd5b506101e660048036038101906101e19190611ec7565b610759565b005b3480156101f457600080fd5b5061020f600480360381019061020a9190612059565b610801565b60405161021c919061218f565b60405180910390f35b34801561023157600080fd5b5061023a61090a565b005b34801561024857600080fd5b5061025161091e565b60405161025e91906121c0565b60405180910390f35b34801561027357600080fd5b5061028e60048036038101906102899190612207565b610948565b005b34801561029c57600080fd5b506102b760048036038101906102b29190611beb565b61095e565b6040516102c49190611b15565b60405180910390f35b3480156102d957600080fd5b506102f460048036038101906102ef9190611beb565b610976565b60405161030191906121c0565b60405180910390f35b34801561031657600080fd5b50610331600480360381019061032c9190612247565b6109a9565b60405161033e9190611bd0565b60405180910390f35b34801561035357600080fd5b5061036e60048036038101906103699190612287565b610a3d565b005b34801561037c57600080fd5b506103976004803603810190610392919061231e565b610ae5565b005b3480156103a557600080fd5b506103c060048036038101906103bb91906123ec565b610b6b565b6040516103cd9190611b15565b60405180910390f35b600080600083815260200190815260200160002060008473ffffffffffffffffffffffffffffffffffffffff1673ffffffffffffffffffffffffffffffffffffffff16815260200190815260200160002054905092915050565b60007fd9b67a26000000000000000000000000000000000000000000000000000000007bffffffffffffffffffffffffffffffffffffffffffffffffffffffff1916827bffffffffffffffffffffffffffffffffffffffffffffffffffffffff191614806104fb57507f0e89341c000000000000000000000000000000000000000000000000000000007bffffffffffffffffffffffffffffffffffffffffffffffffffffffff1916827bffffffffffffffffffffffffffffffffffffffffffffffffffffffff1916145b8061050b575061050a82610c39565b5b9050919050565b60606005600083815260200190815260200160002080546105329061249e565b80601f016020809104026020016040519081016040528092919081815260200182805461055e9061249e565b80156105ab5780601f10610580576101008083540402835291602001916105ab565b820191906000526020600020905b81548152906001019060200180831161058e57829003601f168201915b50505050509050919050565b600760008281526020019081526020016000205434101561060d576040517f08c379a00000000000000000000000000000000000000000000000000000000081526004016106049061251b565b60405180910390fd5b600061064c6006600084815260200190815260200160002060009054906101000a900473ffffffffffffffffffffffffffffffffffffffff16836103d6565b1161068c576040517f08c379a000000000000000000000000000000000000000000000000000000000815260040161068390612587565b60405180910390fd5b6106dc6006600083815260200190815260200160002060009054906101000a900473ffffffffffffffffffffffffffffffffffffffff163383600160405180602001604052806000815250610ca3565b6006600082815260200190815260200160002060009054906101000a900473ffffffffffffffffffffffffffffffffffffffff1673ffffffffffffffffffffffffffffffffffffffff166108fc349081150290604051600060405180830381858888f19350505050158015610755573d6000803e3d6000fd5b5050565b6000610763610dae565b90508073ffffffffffffffffffffffffffffffffffffffff168673ffffffffffffffffffffffffffffffffffffffff16141580156107a857506107a686826109a9565b155b156107ec5780866040517fe237d9220000000000000000000000000000000000000000000000000000000081526004016107e39291906125a7565b60405180910390fd5b6107f98686868686610db6565b505050505050565b6060815183511461084d57815183516040517f5b0599910000000000000000000000000000000000000000000000000000000081526004016108449291906125d0565b60405180910390fd5b6000835167ffffffffffffffff81111561086a57610869611ccf565b5b6040519080825280602002602001820160405280156108985781602001602082028036833780820191505090505b50905060005b84518110156108ff576108d56108bd8287610eae90919063ffffffff16565b6108d08387610ec290919063ffffffff16565b6103d6565b8282815181106108e8576108e76125f9565b5b60200260200101818152505080600101905061089e565b508091505092915050565b610912610ed6565b61091c6000610f5d565b565b6000600360009054906101000a900473ffffffffffffffffffffffffffffffffffffffff16905090565b61095a610953610dae565b8383611023565b5050565b60076020528060005260406000206000915090505481565b60066020528060005260406000206000915054906101000a900473ffffffffffffffffffffffffffffffffffffffff1681565b6000600160008473ffffffffffffffffffffffffffffffffffffffff1673ffffffffffffffffffffffffffffffffffffffff16815260200190815260200160002060008373ffffffffffffffffffffffffffffffffffffffff1673ffffffffffffffffffffffffffffffffffffffff16815260200190815260200160002060009054906101000a900460ff16905092915050565b6000610a47610dae565b90508073ffffffffffffffffffffffffffffffffffffffff168673ffffffffffffffffffffffffffffffffffffffff1614158015610a8c5750610a8a86826109a9565b155b15610ad05780866040517fe237d922000000000000000000000000000000000000000000000000000000008152600401610ac79291906125a7565b60405180910390fd5b610add8686868686610ca3565b505050505050565b610aed610ed6565b600073ffffffffffffffffffffffffffffffffffffffff168173ffffffffffffffffffffffffffffffffffffffff1603610b5f5760006040517f1e4fbdf7000000000000000000000000000000000000000000000000000000008152600401610b5691906121c0565b60405180910390fd5b610b6881610f5d565b50565b60008060046000815480929190610b8190612657565b919050559050610ba286828660405180602001604052806000815250611193565b84600560008381526020019081526020016000209081610bc2919061284b565b50336006600083815260200190815260200160002060006101000a81548173ffffffffffffffffffffffffffffffffffffffff021916908373ffffffffffffffffffffffffffffffffffffffff16021790555082600760008381526020019081526020016000208190555080915050949350505050565b60007f01ffc9a7000000000000000000000000000000000000000000000000000000007bffffffffffffffffffffffffffffffffffffffffffffffffffffffff1916827bffffffffffffffffffffffffffffffffffffffffffffffffffffffff1916149050919050565b600073ffffffffffffffffffffffffffffffffffffffff168473ffffffffffffffffffffffffffffffffffffffff1603610d155760006040517f57f447ce000000000000000000000000000000000000000000000000000000008152600401610d0c91906121c0565b60405180910390fd5b600073ffffffffffffffffffffffffffffffffffffffff168573ffffffffffffffffffffffffffffffffffffffff1603610d875760006040517f01a83514000000000000000000000000000000000000000000000000000000008152600401610d7e91906121c0565b60405180910390fd5b600080610d94858561122c565b91509150610da5878784848761125c565b50505050505050565b600033905090565b600073ffffffffffffffffffffffffffffffffffffffff168473ffffffffffffffffffffffffffffffffffffffff1603610e285760006040517f57f447ce000000000000000000000000000000000000000000000000000000008152600401610e1f91906121c0565b60405180910390fd5b600073ffffffffffffffffffffffffffffffffffffffff168573ffffffffffffffffffffffffffffffffffffffff1603610e9a5760006040517f01a83514000000000000000000000000000000000000000000000000000000008152600401610e9191906121c0565b60405180910390fd5b610ea7858585858561125c565b5050505050565b600060208202602084010151905092915050565b600060208202602084010151905092915050565b610ede610dae565b73ffffffffffffffffffffffffffffffffffffffff16610efc61091e565b73ffffffffffffffffffffffffffffffffffffffff1614610f5b57610f1f610dae565b6040517f118cdaa7000000000000000000000000000000000000000000000000000000008152600401610f5291906121c0565b60405180910390fd5b565b6000600360009054906101000a900473ffffffffffffffffffffffffffffffffffffffff16905081600360006101000a81548173ffffffffffffffffffffffffffffffffffffffff021916908373ffffffffffffffffffffffffffffffffffffffff1602179055508173ffffffffffffffffffffffffffffffffffffffff168173ffffffffffffffffffffffffffffffffffffffff167f8be0079c531659141344cd1fd0a4f28419497f9722a3daafe3b4186f6b6457e060405160405180910390a35050565b600073ffffffffffffffffffffffffffffffffffffffff168273ffffffffffffffffffffffffffffffffffffffff16036110955760006040517fced3e10000000000000000000000000000000000000000000000000000000000815260040161108c91906121c0565b60405180910390fd5b80600160008573ffffffffffffffffffffffffffffffffffffffff1673ffffffffffffffffffffffffffffffffffffffff16815260200190815260200160002060008473ffffffffffffffffffffffffffffffffffffffff1673ffffffffffffffffffffffffffffffffffffffff16815260200190815260200160002060006101000a81548160ff0219169083151502179055508173ffffffffffffffffffffffffffffffffffffffff168373ffffffffffffffffffffffffffffffffffffffff167f17307eab39ab6107e8899845ad3d59bd9653f200f220920489ca2b5937696c31836040516111869190611bd0565b60405180910390a3505050565b600073ffffffffffffffffffffffffffffffffffffffff168473ffffffffffffffffffffffffffffffffffffffff16036112055760006040517f57f447ce0000000000000000000000000000000000000000000000000000000081526004016111fc91906121c0565b60405180910390fd5b600080611212858561122c565b9150915061122460008784848761125c565b505050505050565b60608060405191506001825283602083015260408201905060018152826020820152604081016040529250929050565b6112688585858561130e565b600073ffffffffffffffffffffffffffffffffffffffff168473ffffffffffffffffffffffffffffffffffffffff16146113075760006112a6610dae565b905060018451036112f65760006112c7600086610ec290919063ffffffff16565b905060006112df600086610ec290919063ffffffff16565b90506112ef8389898585896116b6565b5050611305565b61130481878787878761186a565b5b505b5050505050565b805182511461135857815181516040517f5b05999100000000000000000000000000000000000000000000000000000000815260040161134f9291906125d0565b60405180910390fd5b6000611362610dae565b905060005b83518110156115715760006113858286610ec290919063ffffffff16565b9050600061139c8386610ec290919063ffffffff16565b9050600073ffffffffffffffffffffffffffffffffffffffff168873ffffffffffffffffffffffffffffffffffffffff16146114c957600080600084815260200190815260200160002060008a73ffffffffffffffffffffffffffffffffffffffff1673ffffffffffffffffffffffffffffffffffffffff1681526020019081526020016000205490508181101561147157888183856040517f03dee4c5000000000000000000000000000000000000000000000000000000008152600401611468949392919061291d565b60405180910390fd5b81810360008085815260200190815260200160002060008b73ffffffffffffffffffffffffffffffffffffffff1673ffffffffffffffffffffffffffffffffffffffff16815260200190815260200160002081905550505b600073ffffffffffffffffffffffffffffffffffffffff168773ffffffffffffffffffffffffffffffffffffffff1614611564578060008084815260200190815260200160002060008973ffffffffffffffffffffffffffffffffffffffff1673ffffffffffffffffffffffffffffffffffffffff168152602001908152602001600020600082825461155c9190612962565b925050819055505b5050806001019050611367565b506001835103611630576000611591600085610ec290919063ffffffff16565b905060006115a9600085610ec290919063ffffffff16565b90508573ffffffffffffffffffffffffffffffffffffffff168773ffffffffffffffffffffffffffffffffffffffff168473ffffffffffffffffffffffffffffffffffffffff167fc3d58168c5ae7397731d063d5bbf3d657854427343f4c083240f7aacaa2d0f6285856040516116219291906125d0565b60405180910390a450506116af565b8373ffffffffffffffffffffffffffffffffffffffff168573ffffffffffffffffffffffffffffffffffffffff168273ffffffffffffffffffffffffffffffffffffffff167f4a39dc06d4c0dbc64b70af90fd698a233a518aa5d07e595d983b8c0526c8f7fb86866040516116a6929190612996565b60405180910390a45b5050505050565b60008473ffffffffffffffffffffffffffffffffffffffff163b1115611862578373ffffffffffffffffffffffffffffffffffffffff1663f23a6e6187878686866040518663ffffffff1660e01b8152600401611717959493929190612a22565b6020604051808303816000875af192505050801561175357506040513d601f19601f820116820180604052508101906117509190612a91565b60015b6117d7573d8060008114611783576040519150601f19603f3d011682016040523d82523d6000602084013e611788565b606091505b5060008151036117cf57846040517f57f447ce0000000000000000000000000000000000000000000000000000000081526004016117c691906121c0565b60405180910390fd5b805181602001fd5b63f23a6e6160e01b7bffffffffffffffffffffffffffffffffffffffffffffffffffffffff1916817bffffffffffffffffffffffffffffffffffffffffffffffffffffffff19161461186057846040517f57f447ce00000000000000000000000000000000000000000000000000000000815260040161185791906121c0565b60405180910390fd5b505b505050505050565b60008473ffffffffffffffffffffffffffffffffffffffff163b1115611a16578373ffffffffffffffffffffffffffffffffffffffff1663bc197c8187878686866040518663ffffffff1660e01b81526004016118cb959493929190612abe565b6020604051808303816000875af192505050801561190757506040513d601f19601f820116820180604052508101906119049190612a91565b60015b61198b573d8060008114611937576040519150601f19603f3d011682016040523d82523d6000602084013e61193c565b606091505b50600081510361198357846040517f57f447ce00000000000000000000000000000000000000000000000000000000815260040161197a91906121c0565b60405180910390fd5b805181602001fd5b63bc197c8160e01b7bffffffffffffffffffffffffffffffffffffffffffffffffffffffff1916817bffffffffffffffffffffffffffffffffffffffffffffffffffffffff191614611a1457846040517f57f447ce000000000000000000000000000000000000000000000000000000008152600401611a0b91906121c0565b60405180910390fd5b505b505050505050565b6000604051905090565b600080fd5b600080fd5b600073ffffffffffffffffffffffffffffffffffffffff82169050919050565b6000611a5d82611a32565b9050919050565b611a6d81611a52565b8114611a7857600080fd5b50565b600081359050611a8a81611a64565b92915050565b6000819050919050565b611aa381611a90565b8114611aae57600080fd5b50565b600081359050611ac081611a9a565b92915050565b60008060408385031215611add57611adc611a28565b5b6000611aeb85828601611a7b565b9250506020611afc85828601611ab1565b9150509250929050565b611b0f81611a90565b82525050565b6000602082019050611b2a6000830184611b06565b92915050565b60007fffffffff0000000000000000000000000000000000000000000000000000000082169050919050565b611b6581611b30565b8114611b7057600080fd5b50565b600081359050611b8281611b5c565b92915050565b600060208284031215611b9e57611b9d611a28565b5b6000611bac84828501611b73565b91505092915050565b60008115159050919050565b611bca81611bb5565b82525050565b6000602082019050611be56000830184611bc1565b92915050565b600060208284031215611c0157611c00611a28565b5b6000611c0f84828501611ab1565b91505092915050565b600081519050919050565b600082825260208201905092915050565b60005b83811015611c52578082015181840152602081019050611c37565b60008484015250505050565b6000601f19601f8301169050919050565b6000611c7a82611c18565b611c848185611c23565b9350611c94818560208601611c34565b611c9d81611c5e565b840191505092915050565b60006020820190508181036000830152611cc28184611c6f565b905092915050565b600080fd5b7f4e487b7100000000000000000000000000000000000000000000000000000000600052604160045260246000fd5b611d0782611c5e565b810181811067ffffffffffffffff82111715611d2657611d25611ccf565b5b80604052505050565b6000611d39611a1e565b9050611d458282611cfe565b919050565b600067ffffffffffffffff821115611d6557611d64611ccf565b5b602082029050602081019050919050565b600080fd5b6000611d8e611d8984611d4a565b611d2f565b90508083825260208201905060208402830185811115611db157611db0611d76565b5b835b81811015611dda5780611dc68882611ab1565b845260208401935050602081019050611db3565b5050509392505050565b600082601f830112611df957611df8611cca565b5b8135611e09848260208601611d7b565b91505092915050565b600080fd5b600067ffffffffffffffff821115611e3257611e31611ccf565b5b611e3b82611c5e565b9050602081019050919050565b82818337600083830152505050565b6000611e6a611e6584611e17565b611d2f565b905082815260208101848484011115611e8657611e85611e12565b5b611e91848285611e48565b509392505050565b600082601f830112611eae57611ead611cca565b5b8135611ebe848260208601611e57565b91505092915050565b600080600080600060a08688031215611ee357611ee2611a28565b5b6000611ef188828901611a7b565b9550506020611f0288828901611a7b565b945050604086013567ffffffffffffffff811115611f2357611f22611a2d565b5b611f2f88828901611de4565b935050606086013567ffffffffffffffff811115611f5057611f4f611a2d565b5b611f5c88828901611de4565b925050608086013567ffffffffffffffff811115611f7d57611f7c611a2d565b5b611f8988828901611e99565b9150509295509295909350565b600067ffffffffffffffff821115611fb157611fb0611ccf565b5b602082029050602081019050919050565b6000611fd5611fd084611f96565b611d2f565b90508083825260208201905060208402830185811115611ff857611ff7611d76565b5b835b81811015612021578061200d8882611a7b565b845260208401935050602081019050611ffa565b5050509392505050565b600082601f8301126120405761203f611cca565b5b8135612050848260208601611fc2565b91505092915050565b600080604083850312156120705761206f611a28565b5b600083013567ffffffffffffffff81111561208e5761208d611a2d565b5b61209a8582860161202b565b925050602083013567ffffffffffffffff8111156120bb576120ba611a2d565b5b6120c785828601611de4565b9150509250929050565b600081519050919050565b600082825260208201905092915050565b6000819050602082019050919050565b61210681611a90565b82525050565b600061211883836120fd565b60208301905092915050565b6000602082019050919050565b600061213c826120d1565b61214681856120dc565b9350612151836120ed565b8060005b83811015612182578151612169888261210c565b975061217483612124565b925050600181019050612155565b5085935050505092915050565b600060208201905081810360008301526121a98184612131565b905092915050565b6121ba81611a52565b82525050565b60006020820190506121d560008301846121b1565b92915050565b6121e481611bb5565b81146121ef57600080fd5b50565b600081359050612201816121db565b92915050565b6000806040838503121561221e5761221d611a28565b5b600061222c85828601611a7b565b925050602061223d858286016121f2565b9150509250929050565b6000806040838503121561225e5761225d611a28565b5b600061226c85828601611a7b565b925050602061227d85828601611a7b565b9150509250929050565b600080600080600060a086880312156122a3576122a2611a28565b5b60006122b188828901611a7b565b95505060206122c288828901611a7b565b94505060406122d388828901611ab1565b93505060606122e488828901611ab1565b925050608086013567ffffffffffffffff81111561230557612304611a2d565b5b61231188828901611e99565b9150509295509295909350565b60006020828403121561233457612333611a28565b5b600061234284828501611a7b565b91505092915050565b600067ffffffffffffffff82111561236657612365611ccf565b5b61236f82611c5e565b9050602081019050919050565b600061238f61238a8461234b565b611d2f565b9050828152602081018484840111156123ab576123aa611e12565b5b6123b6848285611e48565b509392505050565b600082601f8301126123d3576123d2611cca565b5b81356123e384826020860161237c565b91505092915050565b6000806000806080858703121561240657612405611a28565b5b600061241487828801611a7b565b945050602085013567ffffffffffffffff81111561243557612434611a2d565b5b612441878288016123be565b935050604061245287828801611ab1565b925050606061246387828801611ab1565b91505092959194509250565b7f4e487b7100000000000000000000000000000000000000000000000000000000600052602260045260246000fd5b600060028204905060018216806124b657607f821691505b6020821081036124c9576124c861246f565b5b50919050565b7f496e73756666696369656e74207061796d656e74000000000000000000000000600082015250565b6000612505601483611c23565b9150612510826124cf565b602082019050919050565b60006020820190508181036000830152612534816124f8565b9050919050565b7f4e6f20636f7069657320617661696c61626c6500000000000000000000000000600082015250565b6000612571601383611c23565b915061257c8261253b565b602082019050919050565b600060208201905081810360008301526125a081612564565b9050919050565b60006040820190506125bc60008301856121b1565b6125c960208301846121b1565b9392505050565b60006040820190506125e56000830185611b06565b6125f26020830184611b06565b9392505050565b7f4e487b7100000000000000000000000000000000000000000000000000000000600052603260045260246000fd5b7f4e487b7100000000000000000000000000000000000000000000000000000000600052601160045260246000fd5b600061266282611a90565b91507fffffffffffffffffffffffffffffffffffffffffffffffffffffffffffffffff820361269457612693612628565b5b600182019050919050565b60008190508160005260206000209050919050565b60006020601f8301049050919050565b600082821b905092915050565b6000600883026127017fffffffffffffffffffffffffffffffffffffffffffffffffffffffffffffffff826126c4565b61270b86836126c4565b95508019841693508086168417925050509392505050565b6000819050919050565b600061274861274361273e84611a90565b612723565b611a90565b9050919050565b6000819050919050565b6127628361272d565b61277661276e8261274f565b8484546126d1565b825550505050565b600090565b61278b61277e565b612796818484612759565b505050565b5b818110156127ba576127af600082612783565b60018101905061279c565b5050565b601f8211156127ff576127d08161269f565b6127d9846126b4565b810160208510156127e8578190505b6127fc6127f4856126b4565b83018261279b565b50505b505050565b600082821c905092915050565b600061282260001984600802612804565b1980831691505092915050565b600061283b8383612811565b9150826002028217905092915050565b61285482611c18565b67ffffffffffffffff81111561286d5761286c611ccf565b5b612877825461249e565b6128828282856127be565b600060209050601f8311600181146128b557600084156128a3578287015190505b6128ad858261282f565b865550612915565b601f1984166128c38661269f565b60005b828110156128eb578489015182556001820191506020850194506020810190506128c6565b868310156129085784890151612904601f891682612811565b8355505b6001600288020188555050505b505050505050565b600060808201905061293260008301876121b1565b61293f6020830186611b06565b61294c6040830185611b06565b6129596060830184611b06565b95945050505050565b600061296d82611a90565b915061297883611a90565b92508282019050808211156129905761298f612628565b5b92915050565b600060408201905081810360008301526129b08185612131565b905081810360208301526129c48184612131565b90509392505050565b600081519050919050565b600082825260208201905092915050565b60006129f4826129cd565b6129fe81856129d8565b9350612a0e818560208601611c34565b612a1781611c5e565b840191505092915050565b600060a082019050612a3760008301886121b1565b612a4460208301876121b1565b612a516040830186611b06565b612a5e6060830185611b06565b8181036080830152612a7081846129e9565b90509695505050505050565b600081519050612a8b81611b5c565b92915050565b600060208284031215612aa757612aa6611a28565b5b6000612ab584828501612a7c565b91505092915050565b600060a082019050612ad360008301886121b1565b612ae060208301876121b1565b8181036040830152612af28186612131565b90508181036060830152612b068185612131565b90508181036080830152612b1a81846129e9565b9050969550505050505056fea264697066735822122099f43d7ed7abb4c46a0bba862cfb7ba5c9fca676f5dabdcf89e86b5347ce820764736f6c634300081c0033",
  "linkReferences": {},
  "deployedLinkReferences": {}
}