{
  "_format": "hh-sol-artifact-1",
  "contractName": "MintFlipNFT",
  "sourceName": "contracts/MintFlipNFT.sol",
  "abi": [
    {
      "inputs": [],
      "stateMutability": "nonpayable",
      "type": "constructor"
    },
    {
      "inputs": [
        {
          "internalType": "address",
          "name": "sender",
          "type": "address"
        },
        {
          "internalType": "uint256",
          "name": "tokenId",
          "type": "uint256"
        },
        {
          "internalType": "address",
          "name": "owner",
          "type": "address"
        }
      ],
      "name": "ERC721IncorrectOwner",
      "type": "error"
    },
    {
      "inputs": [
        {
          "internalType": "address",
          "name": "operator",
          "type": "address"
        },
        {
          "internalType": "uint256",
          "name": "tokenId",
          "type": "uint256"
        }
      ],
      "name": "ERC721InsufficientApproval",
      "type": "error"
    },
    {
      "inputs": [
        {
          "internalType": "address",
          "name": "approver",
          "type": "address"
        }
      ],
      "name": "ERC721InvalidApprover",
      "type": "error"
    },
    {
      "inputs": [
        {
          "internalType": "address",
          "name": "operator",
          "type": "address"
        }
      ],
      "name": "ERC721InvalidOperator",
      "type": "error"
    },
    {
      "inputs": [
        {
          "internalType": "address",
          "name": "owner",
          "type": "address"
        }
      ],
      "name": "ERC721InvalidOwner",
      "type": "error"
    },
    {
      "inputs": [
        {
          "internalType": "address",
          "name": "receiver",
          "type": "address"
        }
      ],
      "name": "ERC721InvalidReceiver",
      "type": "error"
    },
    {
      "inputs": [
        {
          "internalType": "address",
          "name": "sender",
          "type": "address"
        }
      ],
      "name": "ERC721InvalidSender",
      "type": "error"
    },
    {
      "inputs": [
        {
          "internalType": "uint256",
          "name": "tokenId",
          "type": "uint256"
        }
      ],
      "name": "ERC721NonexistentToken",
      "type": "error"
    },
    {
      "inputs": [
        {
          "internalType": "address",
          "name": "owner",
          "type": "address"
        }
      ],
      "name": "OwnableInvalidOwner",
      "type": "error"
    },
    {
      "inputs": [
        {
          "internalType": "address",
          "name": "account",
          "type": "address"
        }
      ],
      "name": "OwnableUnauthorizedAccount",
      "type": "error"
    },
    {
      "anonymous": false,
      "inputs": [
        {
          "indexed": true,
          "internalType": "address",
          "name": "owner",
          "type": "address"
        },
        {
          "indexed": true,
          "internalType": "address",
          "name": "approved",
          "type": "address"
        },
        {
          "indexed": true,
          "internalType": "uint256",
          "name": "tokenId",
          "type": "uint256"
        }
      ],
      "name": "Approval",
      "type": "event"
    },
    {
      "anonymous": false,
      "inputs": [
        {
          "indexed": true,
          "internalType": "address",
          "name": "owner",
          "type": "address"
        },
        {
          "indexed": true,
          "internalType": "address",
          "name": "operator",
          "type": "address"
        },
        {
          "indexed": false,
          "internalType": "bool",
          "name": "approved",
          "type": "bool"
        }
      ],
      "name": "ApprovalForAll",
      "type": "event"
    },
    {
      "anonymous": false,
      "inputs": [
        {
          "indexed": false,
          "internalType": "uint256",
          "name": "_fromTokenId",
          "type": "uint256"
        },
        {
          "indexed": false,
          "internalType": "uint256",
          "name": "_toTokenId",
          "type": "uint256"
        }
      ],
      "name": "BatchMetadataUpdate",
      "type": "event"
    },
    {
      "anonymous": false,
      "inputs": [
        {
          "indexed": false,
          "internalType": "uint256",
          "name": "_tokenId",
          "type": "uint256"
        }
      ],
      "name": "MetadataUpdate",
      "type": "event"
    },
    {
      "anonymous": false,
      "inputs": [
        {
          "indexed": true,
          "internalType": "address",
          "name": "previousOwner",
          "type": "address"
        },
        {
          "indexed": true,
          "internalType": "address",
          "name": "newOwner",
          "type": "address"
        }
      ],
      "name": "OwnershipTransferred",
      "type": "event"
    },
    {
      "anonymous": false,
      "inputs": [
        {
          "indexed": true,
          "internalType": "address",
          "name": "from",
          "type": "address"
        },
        {
          "indexed": true,
          "internalType": "address",
          "name": "to",
          "type": "address"
        },
        {
          "indexed": true,
          "internalType": "uint256",
          "name": "tokenId",
          "type": "uint256"
        }
      ],
      "name": "Transfer",
      "type": "event"
    },
    {
      "inputs": [
        {
          "internalType": "address",
          "name": "to",
          "type": "address"
        },
        {
          "internalType": "uint256",
          "name": "tokenId",
          "type": "uint256"
        }
      ],
      "name": "approve",
      "outputs": [],
      "stateMutability": "nonpayable",
      "type": "function"
    },
    {
      "inputs": [
        {
          "internalType": "address",
          "name": "owner",
          "type": "address"
        }
      ],
      "name": "balanceOf",
      "outputs": [
        {
          "internalType": "uint256",
          "name": "",
          "type": "uint256"
        }
      ],
      "stateMutability": "view",
      "type": "function"
    },
    {
      "inputs": [
        {
          "internalType": "uint256",
          "name": "tokenId",
          "type": "uint256"
        }
      ],
      "name": "creatorOf",
      "outputs": [
        {
          "internalType": "address",
          "name": "",
          "type": "address"
        }
      ],
      "stateMutability": "view",
      "type": "function"
    },
    {
      "inputs": [
        {
          "internalType": "uint256",
          "name": "tokenId",
          "type": "uint256"
        }
      ],
      "name": "getApproved",
      "outputs": [
        {
          "internalType": "address",
          "name": "",
          "type": "address"
        }
      ],
      "stateMutability": "view",
      "type": "function"
    },
    {
      "inputs": [
        {
          "internalType": "address",
          "name": "owner",
          "type": "address"
        },
        {
          "internalType": "address",
          "name": "operator",
          "type": "address"
        }
      ],
      "name": "isApprovedForAll",
      "outputs": [
        {
          "internalType": "bool",
          "name": "",
          "type": "bool"
        }
      ],
      "stateMutability": "view",
      "type": "function"
    },
    {
      "inputs": [
        {
          "internalType": "address",
          "name": "recipient",
          "type": "address"
        },
        {
          "internalType": "string",
          "name": "tokenURI",
          "type": "string"
        }
      ],
      "name": "mintNFT",
      "outputs": [
        {
          "internalType": "uint256",
          "name": "",
          "type": "uint256"
        }
      ],
      "stateMutability": "nonpayable",
      "type": "function"
    },
    {
      "inputs": [],
      "name": "name",
      "outputs": [
        {
          "internalType": "string",
          "name": "",
          "type": "string"
        }
      ],
      "stateMutability": "view",
      "type": "function"
    },
    {
      "inputs": [],
      "name": "owner",
      "outputs": [
        {
          "internalType": "address",
          "name": "",
          "type": "address"
        }
      ],
      "stateMutability": "view",
      "type": "function"
    },
    {
      "inputs": [
        {
          "internalType": "uint256",
          "name": "tokenId",
          "type": "uint256"
        }
      ],
      "name": "ownerOf",
      "outputs": [
        {
          "internalType": "address",
          "name": "",
          "type": "address"
        }
      ],
      "stateMutability": "view",
      "type": "function"
    },
    {
      "inputs": [],
      "name": "renounceOwnership",
      "outputs": [],
      "stateMutability": "nonpayable",
      "type": "function"
    },
    {
      "inputs": [],
      "name": "royaltyBasisPoints",
      "outputs": [
        {
          "internalType": "uint256",
          "name": "",
          "type": "uint256"
        }
      ],
      "stateMutability": "view",
      "type": "function"
    },
    {
      "inputs": [
        {
          "internalType": "address",
          "name": "from",
          "type": "address"
        },
        {
          "internalType": "address",
          "name": "to",
          "type": "address"
        },
        {
          "internalType": "uint256",
          "name": "tokenId",
          "type": "uint256"
        }
      ],
      "name": "safeTransferFrom",
      "outputs": [],
      "stateMutability": "nonpayable",
      "type": "function"
    },
    {
      "inputs": [
        {
          "internalType": "address",
          "name": "from",
          "type": "address"
        },
        {
          "internalType": "address",
          "name": "to",
          "type": "address"
        },
        {
          "internalType": "uint256",
          "name": "tokenId",
          "type": "uint256"
        },
        {
          "internalType": "bytes",
          "name": "data",
          "type": "bytes"
        }
      ],
      "name": "safeTransferFrom",
      "outputs": [],
      "stateMutability": "nonpayable",
      "type": "function"
    },
    {
      "inputs": [
        {
          "internalType": "address",
          "name": "operator",
          "type": "address"
        },
        {
          "internalType": "bool",
          "name": "approved",
          "type": "bool"
        }
      ],
      "name": "setApprovalForAll",
      "outputs": [],
      "stateMutability": "nonpayable",
      "type": "function"
    },
    {
      "inputs": [
        {
          "internalType": "uint256",
          "name": "_royaltyBasisPoints",
          "type": "uint256"
        }
      ],
      "name": "setRoyaltyBasisPoints",
      "outputs": [],
      "stateMutability": "nonpayable",
      "type": "function"
    },
    {
      "inputs": [
        {
          "internalType": "bytes4",
          "name": "interfaceId",
          "type": "bytes4"
        }
      ],
      "name": "supportsInterface",
      "outputs": [
        {
          "internalType": "bool",
          "name": "",
          "type": "bool"
        }
      ],
      "stateMutability": "view",
      "type": "function"
    },
    {
      "inputs": [],
      "name": "symbol",
      "outputs": [
        {
          "internalType": "string",
          "name": "",
          "type": "string"
        }
      ],
      "stateMutability": "view",
      "type": "function"
    },
    {
      "inputs": [
        {
          "internalType": "uint256",
          "name": "tokenId",
          "type": "uint256"
        }
      ],
      "name": "tokenURI",
      "outputs": [
        {
          "internalType": "string",
          "name": "",
          "type": "string"
        }
      ],
      "stateMutability": "view",
      "type": "function"
    },
    {
      "inputs": [
        {
          "internalType": "address",
          "name": "from",
          "type": "address"
        },
        {
          "internalType": "address",
          "name": "to",
          "type": "address"
        },
        {
          "internalType": "uint256",
          "name": "tokenId",
          "type": "uint256"
        }
      ],
      "name": "transferFrom",
      "outputs": [],
      "stateMutability": "nonpayable",
      "type": "function"
    },
    {
      "inputs": [
        {
          "internalType": "address",
          "name": "newOwner",
          "type": "address"
        }
      ],
      "name": "transferOwnership",
      "outputs": [],
      "stateMutability": "nonpayable",
      "type": "function"
    }
  ],
  "bytecode": "0x60806040526101f4600a5534801561001657600080fd5b50336040518060400160405280600c81526020017f4d696e74466c6970204e465400000000000000000000000000000000000000008152506040518060400160405280600581526020017f4d464e465400000000000000000000000000000000000000000000000000000081525081600090816100939190610443565b5080600190816100a39190610443565b505050600073ffffffffffffffffffffffffffffffffffffffff168173ffffffffffffffffffffffffffffffffffffffff16036101185760006040517f1e4fbdf700000000000000000000000000000000000000000000000000000000815260040161010f9190610556565b60405180910390fd5b6101278161012d60201b60201c565b50610571565b6000600760009054906101000a900473ffffffffffffffffffffffffffffffffffffffff16905081600760006101000a81548173ffffffffffffffffffffffffffffffffffffffff021916908373ffffffffffffffffffffffffffffffffffffffff1602179055508173ffffffffffffffffffffffffffffffffffffffff168173ffffffffffffffffffffffffffffffffffffffff167f8be0079c531659141344cd1fd0a4f28419497f9722a3daafe3b4186f6b6457e060405160405180910390a35050565b600081519050919050565b7f4e487b7100000000000000000000000000000000000000000000000000000000600052604160045260246000fd5b7f4e487b7100000000000000000000000000000000000000000000000000000000600052602260045260246000fd5b6000600282049050600182168061027457607f821691505b6020821081036102875761028661022d565b5b50919050565b60008190508160005260206000209050919050565b60006020601f8301049050919050565b600082821b905092915050565b6000600883026102ef7fffffffffffffffffffffffffffffffffffffffffffffffffffffffffffffffff826102b2565b6102f986836102b2565b95508019841693508086168417925050509392505050565b6000819050919050565b6000819050919050565b600061034061033b61033684610311565b61031b565b610311565b9050919050565b6000819050919050565b61035a83610325565b61036e61036682610347565b8484546102bf565b825550505050565b600090565b610383610376565b61038e818484610351565b505050565b5b818110156103b2576103a760008261037b565b600181019050610394565b5050565b601f8211156103f7576103c88161028d565b6103d1846102a2565b810160208510156103e0578190505b6103f46103ec856102a2565b830182610393565b50505b505050565b600082821c905092915050565b600061041a600019846008026103fc565b1980831691505092915050565b60006104338383610409565b9150826002028217905092915050565b61044c826101f3565b67ffffffffffffffff811115610465576104646101fe565b5b61046f825461025c565b61047a8282856103b6565b600060209050601f8311600181146104ad576000841561049b578287015190505b6104a58582610427565b86555061050d565b601f1984166104bb8661028d565b60005b828110156104e3578489015182556001820191506020850194506020810190506104be565b8683101561050057848901516104fc601f891682610409565b8355505b6001600288020188555050505b505050505050565b600073ffffffffffffffffffffffffffffffffffffffff82169050919050565b600061054082610515565b9050919050565b61055081610535565b82525050565b600060208201905061056b6000830184610547565b92915050565b61290c806105806000396000f3fe608060405234801561001057600080fd5b506004361061012c5760003560e01c8063715018a6116100ad578063b88d4fde11610071578063b88d4fde1461032f578063c87b56dd1461034b578063e985e9c51461037b578063eacabe14146103ab578063f2fde38b146103db5761012c565b8063715018a6146102b15780638da5cb5b146102bb57806395d89b41146102d9578063a22cb465146102f7578063b6b81940146103135761012c565b806342260b5d116100f457806342260b5d146101e757806342842e0e14610205578063589a1743146102215780636352211e1461025157806370a08231146102815761012c565b806301ffc9a71461013157806306fdde0314610161578063081812fc1461017f578063095ea7b3146101af57806323b872dd146101cb575b600080fd5b61014b60048036038101906101469190611c8c565b6103f7565b6040516101589190611cd4565b60405180910390f35b610169610458565b6040516101769190611d7f565b60405180910390f35b61019960048036038101906101949190611dd7565b6104ea565b6040516101a69190611e45565b60405180910390f35b6101c960048036038101906101c49190611e8c565b610506565b005b6101e560048036038101906101e09190611ecc565b61051c565b005b6101ef61061e565b6040516101fc9190611f2e565b60405180910390f35b61021f600480360381019061021a9190611ecc565b610624565b005b61023b60048036038101906102369190611dd7565b610644565b6040516102489190611e45565b60405180910390f35b61026b60048036038101906102669190611dd7565b6106c9565b6040516102789190611e45565b60405180910390f35b61029b60048036038101906102969190611f49565b6106db565b6040516102a89190611f2e565b60405180910390f35b6102b9610795565b005b6102c36107a9565b6040516102d09190611e45565b60405180910390f35b6102e16107d3565b6040516102ee9190611d7f565b60405180910390f35b610311600480360381019061030c9190611fa2565b610865565b005b61032d60048036038101906103289190611dd7565b61087b565b005b61034960048036038101906103449190612117565b6108d2565b005b61036560048036038101906103609190611dd7565b6108f7565b6040516103729190611d7f565b60405180910390f35b6103956004803603810190610390919061219a565b610a0a565b6040516103a29190611cd4565b60405180910390f35b6103c560048036038101906103c0919061227b565b610a9e565b6040516103d29190611f2e565b60405180910390f35b6103f560048036038101906103f09190611f49565b610b2a565b005b6000634906490660e01b7bffffffffffffffffffffffffffffffffffffffffffffffffffffffff1916827bffffffffffffffffffffffffffffffffffffffffffffffffffffffff19161480610451575061045082610bb0565b5b9050919050565b60606000805461046790612306565b80601f016020809104026020016040519081016040528092919081815260200182805461049390612306565b80156104e05780601f106104b5576101008083540402835291602001916104e0565b820191906000526020600020905b8154815290600101906020018083116104c357829003601f168201915b5050505050905090565b60006104f582610c92565b506104ff82610d1a565b9050919050565b6105188282610513610d57565b610d5f565b5050565b600073ffffffffffffffffffffffffffffffffffffffff168273ffffffffffffffffffffffffffffffffffffffff160361058e5760006040517f64a0ae920000000000000000000000000000000000000000000000000000000081526004016105859190611e45565b60405180910390fd5b60006105a2838361059d610d57565b610d71565b90508373ffffffffffffffffffffffffffffffffffffffff168173ffffffffffffffffffffffffffffffffffffffff1614610618578382826040517f64283d7b00000000000000000000000000000000000000000000000000000000815260040161060f93929190612337565b60405180910390fd5b50505050565b600a5481565b61063f838383604051806020016040528060008152506108d2565b505050565b600061064f82610f8b565b61068e576040517f08c379a0000000000000000000000000000000000000000000000000000000008152600401610685906123ba565b60405180910390fd5b6009600083815260200190815260200160002060009054906101000a900473ffffffffffffffffffffffffffffffffffffffff169050919050565b60006106d482610c92565b9050919050565b60008073ffffffffffffffffffffffffffffffffffffffff168273ffffffffffffffffffffffffffffffffffffffff160361074e5760006040517f89c62b640000000000000000000000000000000000000000000000000000000081526004016107459190611e45565b60405180910390fd5b600360008373ffffffffffffffffffffffffffffffffffffffff1673ffffffffffffffffffffffffffffffffffffffff168152602001908152602001600020549050919050565b61079d610fcc565b6107a76000611053565b565b6000600760009054906101000a900473ffffffffffffffffffffffffffffffffffffffff16905090565b6060600180546107e290612306565b80601f016020809104026020016040519081016040528092919081815260200182805461080e90612306565b801561085b5780601f106108305761010080835404028352916020019161085b565b820191906000526020600020905b81548152906001019060200180831161083e57829003601f168201915b5050505050905090565b610877610870610d57565b8383611119565b5050565b610883610fcc565b6103e88111156108c8576040517f08c379a00000000000000000000000000000000000000000000000000000000081526004016108bf90612426565b60405180910390fd5b80600a8190555050565b6108dd84848461051c565b6108f16108e8610d57565b85858585611288565b50505050565b606061090282610c92565b50600060066000848152602001908152602001600020805461092390612306565b80601f016020809104026020016040519081016040528092919081815260200182805461094f90612306565b801561099c5780601f106109715761010080835404028352916020019161099c565b820191906000526020600020905b81548152906001019060200180831161097f57829003601f168201915b5050505050905060006109ad611439565b905060008151036109c2578192505050610a05565b6000825111156109f75780826040516020016109df929190612482565b60405160208183030381529060405292505050610a05565b610a0084611450565b925050505b919050565b6000600560008473ffffffffffffffffffffffffffffffffffffffff1673ffffffffffffffffffffffffffffffffffffffff16815260200190815260200160002060008373ffffffffffffffffffffffffffffffffffffffff1673ffffffffffffffffffffffffffffffffffffffff16815260200190815260200160002060009054906101000a900460ff16905092915050565b60008060086000815480929190610ab4906124d5565b919050559050610ac484826114b9565b610ace81846115b2565b336009600083815260200190815260200160002060006101000a81548173ffffffffffffffffffffffffffffffffffffffff021916908373ffffffffffffffffffffffffffffffffffffffff1602179055508091505092915050565b610b32610fcc565b600073ffffffffffffffffffffffffffffffffffffffff168173ffffffffffffffffffffffffffffffffffffffff1603610ba45760006040517f1e4fbdf7000000000000000000000000000000000000000000000000000000008152600401610b9b9190611e45565b60405180910390fd5b610bad81611053565b50565b60007f80ac58cd000000000000000000000000000000000000000000000000000000007bffffffffffffffffffffffffffffffffffffffffffffffffffffffff1916827bffffffffffffffffffffffffffffffffffffffffffffffffffffffff19161480610c7b57507f5b5e139f000000000000000000000000000000000000000000000000000000007bffffffffffffffffffffffffffffffffffffffffffffffffffffffff1916827bffffffffffffffffffffffffffffffffffffffffffffffffffffffff1916145b80610c8b5750610c8a8261160e565b5b9050919050565b600080610c9e83611678565b9050600073ffffffffffffffffffffffffffffffffffffffff168173ffffffffffffffffffffffffffffffffffffffff1603610d1157826040517f7e273289000000000000000000000000000000000000000000000000000000008152600401610d089190611f2e565b60405180910390fd5b80915050919050565b60006004600083815260200190815260200160002060009054906101000a900473ffffffffffffffffffffffffffffffffffffffff169050919050565b600033905090565b610d6c83838360016116b5565b505050565b600080610d7d84611678565b9050600073ffffffffffffffffffffffffffffffffffffffff168373ffffffffffffffffffffffffffffffffffffffff1614610dbf57610dbe81848661187a565b5b600073ffffffffffffffffffffffffffffffffffffffff168173ffffffffffffffffffffffffffffffffffffffff1614610e5057610e016000856000806116b5565b6001600360008373ffffffffffffffffffffffffffffffffffffffff1673ffffffffffffffffffffffffffffffffffffffff168152602001908152602001600020600082825403925050819055505b600073ffffffffffffffffffffffffffffffffffffffff168573ffffffffffffffffffffffffffffffffffffffff1614610ed3576001600360008773ffffffffffffffffffffffffffffffffffffffff1673ffffffffffffffffffffffffffffffffffffffff168152602001908152602001600020600082825401925050819055505b846002600086815260200190815260200160002060006101000a81548173ffffffffffffffffffffffffffffffffffffffff021916908373ffffffffffffffffffffffffffffffffffffffff160217905550838573ffffffffffffffffffffffffffffffffffffffff168273ffffffffffffffffffffffffffffffffffffffff167fddf252ad1be2c89b69c2b068fc378daa952ba7f163c4a11628f55a4df523b3ef60405160405180910390a4809150509392505050565b60008073ffffffffffffffffffffffffffffffffffffffff16610fad83611678565b73ffffffffffffffffffffffffffffffffffffffff1614159050919050565b610fd4610d57565b73ffffffffffffffffffffffffffffffffffffffff16610ff26107a9565b73ffffffffffffffffffffffffffffffffffffffff161461105157611015610d57565b6040517f118cdaa70000000000000000000000000000000000000000000000000000000081526004016110489190611e45565b60405180910390fd5b565b6000600760009054906101000a900473ffffffffffffffffffffffffffffffffffffffff16905081600760006101000a81548173ffffffffffffffffffffffffffffffffffffffff021916908373ffffffffffffffffffffffffffffffffffffffff1602179055508173ffffffffffffffffffffffffffffffffffffffff168173ffffffffffffffffffffffffffffffffffffffff167f8be0079c531659141344cd1fd0a4f28419497f9722a3daafe3b4186f6b6457e060405160405180910390a35050565b600073ffffffffffffffffffffffffffffffffffffffff168273ffffffffffffffffffffffffffffffffffffffff160361118a57816040517f5b08ba180000000000000000000000000000000000000000000000000000000081526004016111819190611e45565b60405180910390fd5b80600560008573ffffffffffffffffffffffffffffffffffffffff1673ffffffffffffffffffffffffffffffffffffffff16815260200190815260200160002060008473ffffffffffffffffffffffffffffffffffffffff1673ffffffffffffffffffffffffffffffffffffffff16815260200190815260200160002060006101000a81548160ff0219169083151502179055508173ffffffffffffffffffffffffffffffffffffffff168373ffffffffffffffffffffffffffffffffffffffff167f17307eab39ab6107e8899845ad3d59bd9653f200f220920489ca2b5937696c318360405161127b9190611cd4565b60405180910390a3505050565b60008373ffffffffffffffffffffffffffffffffffffffff163b1115611432578273ffffffffffffffffffffffffffffffffffffffff1663150b7a02868685856040518563ffffffff1660e01b81526004016112e79493929190612572565b6020604051808303816000875af192505050801561132357506040513d601f19601f8201168201806040525081019061132091906125d3565b60015b6113a7573d8060008114611353576040519150601f19603f3d011682016040523d82523d6000602084013e611358565b606091505b50600081510361139f57836040517f64a0ae920000000000000000000000000000000000000000000000000000000081526004016113969190611e45565b60405180910390fd5b805181602001fd5b63150b7a0260e01b7bffffffffffffffffffffffffffffffffffffffffffffffffffffffff1916817bffffffffffffffffffffffffffffffffffffffffffffffffffffffff19161461143057836040517f64a0ae920000000000000000000000000000000000000000000000000000000081526004016114279190611e45565b60405180910390fd5b505b5050505050565b606060405180602001604052806000815250905090565b606061145b82610c92565b506000611466611439565b9050600081511161148657604051806020016040528060008152506114b1565b806114908461193e565b6040516020016114a1929190612482565b6040516020818303038152906040525b915050919050565b600073ffffffffffffffffffffffffffffffffffffffff168273ffffffffffffffffffffffffffffffffffffffff160361152b5760006040517f64a0ae920000000000000000000000000000000000000000000000000000000081526004016115229190611e45565b60405180910390fd5b600061153983836000610d71565b9050600073ffffffffffffffffffffffffffffffffffffffff168173ffffffffffffffffffffffffffffffffffffffff16146115ad5760006040517f73c6ac6e0000000000000000000000000000000000000000000000000000000081526004016115a49190611e45565b60405180910390fd5b505050565b806006600084815260200190815260200160002090816115d291906127ac565b507ff8e1a15aba9398e019f0b49df1a4fde98ee17ae345cb5f6b5e2c27f5033e8ce7826040516116029190611f2e565b60405180910390a15050565b60007f01ffc9a7000000000000000000000000000000000000000000000000000000007bffffffffffffffffffffffffffffffffffffffffffffffffffffffff1916827bffffffffffffffffffffffffffffffffffffffffffffffffffffffff1916149050919050565b60006002600083815260200190815260200160002060009054906101000a900473ffffffffffffffffffffffffffffffffffffffff169050919050565b80806116ee5750600073ffffffffffffffffffffffffffffffffffffffff168273ffffffffffffffffffffffffffffffffffffffff1614155b156118225760006116fe84610c92565b9050600073ffffffffffffffffffffffffffffffffffffffff168373ffffffffffffffffffffffffffffffffffffffff161415801561176957508273ffffffffffffffffffffffffffffffffffffffff168173ffffffffffffffffffffffffffffffffffffffff1614155b801561177c575061177a8184610a0a565b155b156117be57826040517fa9fbf51f0000000000000000000000000000000000000000000000000000000081526004016117b59190611e45565b60405180910390fd5b811561182057838573ffffffffffffffffffffffffffffffffffffffff168273ffffffffffffffffffffffffffffffffffffffff167f8c5be1e5ebec7d5bd14f71427d1e84f3dd0314c0f7b2291e5b200ac8c7c3b92560405160405180910390a45b505b836004600085815260200190815260200160002060006101000a81548173ffffffffffffffffffffffffffffffffffffffff021916908373ffffffffffffffffffffffffffffffffffffffff16021790555050505050565b611885838383611a0c565b61193957600073ffffffffffffffffffffffffffffffffffffffff168373ffffffffffffffffffffffffffffffffffffffff16036118fa57806040517f7e2732890000000000000000000000000000000000000000000000000000000081526004016118f19190611f2e565b60405180910390fd5b81816040517f177e802f00000000000000000000000000000000000000000000000000000000815260040161193092919061287e565b60405180910390fd5b505050565b60606000600161194d84611acd565b01905060008167ffffffffffffffff81111561196c5761196b611fec565b5b6040519080825280601f01601f19166020018201604052801561199e5781602001600182028036833780820191505090505b509050600082602001820190505b600115611a01578080600190039150507f3031323334353637383961626364656600000000000000000000000000000000600a86061a8153600a85816119f5576119f46128a7565b5b049450600085036119ac575b819350505050919050565b60008073ffffffffffffffffffffffffffffffffffffffff168373ffffffffffffffffffffffffffffffffffffffff1614158015611ac457508273ffffffffffffffffffffffffffffffffffffffff168473ffffffffffffffffffffffffffffffffffffffff161480611a855750611a848484610a0a565b5b80611ac357508273ffffffffffffffffffffffffffffffffffffffff16611aab83610d1a565b73ffffffffffffffffffffffffffffffffffffffff16145b5b90509392505050565b600080600090507a184f03e93ff9f4daa797ed6e38ed64bf6a1f0100000000000000008310611b2b577a184f03e93ff9f4daa797ed6e38ed64bf6a1f0100000000000000008381611b2157611b206128a7565b5b0492506040810190505b6d04ee2d6d415b85acef81000000008310611b68576d04ee2d6d415b85acef81000000008381611b5e57611b5d6128a7565b5b0492506020810190505b662386f26fc100008310611b9757662386f26fc100008381611b8d57611b8c6128a7565b5b0492506010810190505b6305f5e1008310611bc0576305f5e1008381611bb657611bb56128a7565b5b0492506008810190505b6127108310611be5576127108381611bdb57611bda6128a7565b5b0492506004810190505b60648310611c085760648381611bfe57611bfd6128a7565b5b0492506002810190505b600a8310611c17576001810190505b80915050919050565b6000604051905090565b600080fd5b600080fd5b60007fffffffff0000000000000000000000000000000000000000000000000000000082169050919050565b611c6981611c34565b8114611c7457600080fd5b50565b600081359050611c8681611c60565b92915050565b600060208284031215611ca257611ca1611c2a565b5b6000611cb084828501611c77565b91505092915050565b60008115159050919050565b611cce81611cb9565b82525050565b6000602082019050611ce96000830184611cc5565b92915050565b600081519050919050565b600082825260208201905092915050565b60005b83811015611d29578082015181840152602081019050611d0e565b60008484015250505050565b6000601f19601f8301169050919050565b6000611d5182611cef565b611d5b8185611cfa565b9350611d6b818560208601611d0b565b611d7481611d35565b840191505092915050565b60006020820190508181036000830152611d998184611d46565b905092915050565b6000819050919050565b611db481611da1565b8114611dbf57600080fd5b50565b600081359050611dd181611dab565b92915050565b600060208284031215611ded57611dec611c2a565b5b6000611dfb84828501611dc2565b91505092915050565b600073ffffffffffffffffffffffffffffffffffffffff82169050919050565b6000611e2f82611e04565b9050919050565b611e3f81611e24565b82525050565b6000602082019050611e5a6000830184611e36565b92915050565b611e6981611e24565b8114611e7457600080fd5b50565b600081359050611e8681611e60565b92915050565b60008060408385031215611ea357611ea2611c2a565b5b6000611eb185828601611e77565b9250506020611ec285828601611dc2565b9150509250929050565b600080600060608486031215611ee557611ee4611c2a565b5b6000611ef386828701611e77565b9350506020611f0486828701611e77565b9250506040611f1586828701611dc2565b9150509250925092565b611f2881611da1565b82525050565b6000602082019050611f436000830184611f1f565b92915050565b600060208284031215611f5f57611f5e611c2a565b5b6000611f6d84828501611e77565b91505092915050565b611f7f81611cb9565b8114611f8a57600080fd5b50565b600081359050611f9c81611f76565b92915050565b60008060408385031215611fb957611fb8611c2a565b5b6000611fc785828601611e77565b9250506020611fd885828601611f8d565b9150509250929050565b600080fd5b600080fd5b7f4e487b7100000000000000000000000000000000000000000000000000000000600052604160045260246000fd5b61202482611d35565b810181811067ffffffffffffffff8211171561204357612042611fec565b5b80604052505050565b6000612056611c20565b9050612062828261201b565b919050565b600067ffffffffffffffff82111561208257612081611fec565b5b61208b82611d35565b9050602081019050919050565b82818337600083830152505050565b60006120ba6120b584612067565b61204c565b9050828152602081018484840111156120d6576120d5611fe7565b5b6120e1848285612098565b509392505050565b600082601f8301126120fe576120fd611fe2565b5b813561210e8482602086016120a7565b91505092915050565b6000806000806080858703121561213157612130611c2a565b5b600061213f87828801611e77565b945050602061215087828801611e77565b935050604061216187828801611dc2565b925050606085013567ffffffffffffffff81111561218257612181611c2f565b5b61218e878288016120e9565b91505092959194509250565b600080604083850312156121b1576121b0611c2a565b5b60006121bf85828601611e77565b92505060206121d085828601611e77565b9150509250929050565b600067ffffffffffffffff8211156121f5576121f4611fec565b5b6121fe82611d35565b9050602081019050919050565b600061221e612219846121da565b61204c565b90508281526020810184848401111561223a57612239611fe7565b5b612245848285612098565b509392505050565b600082601f83011261226257612261611fe2565b5b813561227284826020860161220b565b91505092915050565b6000806040838503121561229257612291611c2a565b5b60006122a085828601611e77565b925050602083013567ffffffffffffffff8111156122c1576122c0611c2f565b5b6122cd8582860161224d565b9150509250929050565b7f4e487b7100000000000000000000000000000000000000000000000000000000600052602260045260246000fd5b6000600282049050600182168061231e57607f821691505b602082108103612331576123306122d7565b5b50919050565b600060608201905061234c6000830186611e36565b6123596020830185611f1f565b6123666040830184611e36565b949350505050565b7f546f6b656e20646f6573206e6f74206578697374000000000000000000000000600082015250565b60006123a4601483611cfa565b91506123af8261236e565b602082019050919050565b600060208201905081810360008301526123d381612397565b9050919050565b7f526f79616c747920746f6f206869676800000000000000000000000000000000600082015250565b6000612410601083611cfa565b915061241b826123da565b602082019050919050565b6000602082019050818103600083015261243f81612403565b9050919050565b600081905092915050565b600061245c82611cef565b6124668185612446565b9350612476818560208601611d0b565b80840191505092915050565b600061248e8285612451565b915061249a8284612451565b91508190509392505050565b7f4e487b7100000000000000000000000000000000000000000000000000000000600052601160045260246000fd5b60006124e082611da1565b91507fffffffffffffffffffffffffffffffffffffffffffffffffffffffffffffffff8203612512576125116124a6565b5b600182019050919050565b600081519050919050565b600082825260208201905092915050565b60006125448261251d565b61254e8185612528565b935061255e818560208601611d0b565b61256781611d35565b840191505092915050565b60006080820190506125876000830187611e36565b6125946020830186611e36565b6125a16040830185611f1f565b81810360608301526125b38184612539565b905095945050505050565b6000815190506125cd81611c60565b92915050565b6000602082840312156125e9576125e8611c2a565b5b60006125f7848285016125be565b91505092915050565b60008190508160005260206000209050919050565b60006020601f8301049050919050565b600082821b905092915050565b6000600883026126627fffffffffffffffffffffffffffffffffffffffffffffffffffffffffffffffff82612625565b61266c8683612625565b95508019841693508086168417925050509392505050565b6000819050919050565b60006126a96126a461269f84611da1565b612684565b611da1565b9050919050565b6000819050919050565b6126c38361268e565b6126d76126cf826126b0565b848454612632565b825550505050565b600090565b6126ec6126df565b6126f78184846126ba565b505050565b5b8181101561271b576127106000826126e4565b6001810190506126fd565b5050565b601f8211156127605761273181612600565b61273a84612615565b81016020851015612749578190505b61275d61275585612615565b8301826126fc565b50505b505050565b600082821c905092915050565b600061278360001984600802612765565b1980831691505092915050565b600061279c8383612772565b9150826002028217905092915050565b6127b582611cef565b67ffffffffffffffff8111156127ce576127cd611fec565b5b6127d88254612306565b6127e382828561271f565b600060209050601f8311600181146128165760008415612804578287015190505b61280e8582612790565b865550612876565b601f19841661282486612600565b60005b8281101561284c57848901518255600182019150602085019450602081019050612827565b868310156128695784890151612865601f891682612772565b8355505b6001600288020188555050505b505050505050565b60006040820190506128936000830185611e36565b6128a06020830184611f1f565b9392505050565b7f4e487b7100000000000000000000000000000000000000000000000000000000600052601260045260246000fdfea2646970667358221220c31f18ea21173746dd0c40c64894aaf7fc783e468a9fb146fd0f99f69aafeab064736f6c634300081c0033",
  "linkReferences": {},
  "deployedLinkReferences": {}
}